{
  "contractName": "TiCtAcToE",
  "abi": [
    {
      "constant": true,
      "inputs": [],
      "name": "player2",
      "outputs": [
        {
          "name": "",
          "type": "address"
        }
      ],
      "payable": false,
      "stateMutability": "view",
      "type": "function",
      "signature": "0x59a5f12d"
    },
    {
      "constant": true,
      "inputs": [
        {
          "name": "",
          "type": "uint256"
        },
        {
          "name": "",
          "type": "uint256"
        }
      ],
      "name": "board",
      "outputs": [
        {
          "name": "",
          "type": "uint8"
        }
      ],
      "payable": false,
      "stateMutability": "view",
      "type": "function",
      "signature": "0x8086a92a"
    },
    {
      "constant": true,
      "inputs": [],
      "name": "activeUser",
      "outputs": [
        {
          "name": "",
          "type": "address"
        }
      ],
      "payable": false,
      "stateMutability": "view",
      "type": "function",
      "signature": "0x95731112"
    },
    {
      "constant": true,
      "inputs": [],
      "name": "isReady",
      "outputs": [
        {
          "name": "",
          "type": "bool"
        }
      ],
      "payable": false,
      "stateMutability": "view",
      "type": "function",
      "signature": "0xa094a031"
    },
    {
      "constant": true,
      "inputs": [],
      "name": "player1",
      "outputs": [
        {
          "name": "",
          "type": "address"
        }
      ],
      "payable": false,
      "stateMutability": "view",
      "type": "function",
      "signature": "0xd30895e4"
    },
    {
      "constant": true,
      "inputs": [],
      "name": "winner",
      "outputs": [
        {
          "name": "",
          "type": "address"
        }
      ],
      "payable": false,
      "stateMutability": "view",
      "type": "function",
      "signature": "0xdfbf53ae"
    },
    {
      "inputs": [],
      "payable": false,
      "stateMutability": "nonpayable",
      "type": "constructor",
      "signature": "constructor"
    },
    {
      "constant": false,
      "inputs": [],
      "name": "setUser",
      "outputs": [],
      "payable": false,
      "stateMutability": "nonpayable",
      "type": "function",
      "signature": "0x0fa33d13"
    },
    {
      "constant": false,
      "inputs": [
        {
          "name": "col",
          "type": "uint8"
        },
        {
          "name": "row",
          "type": "uint8"
        }
      ],
      "name": "move",
      "outputs": [],
      "payable": false,
      "stateMutability": "nonpayable",
      "type": "function",
      "signature": "0x701bd985"
    }
  ],
  "bytecode": "0x60806040526000600460006101000a81548173ffffffffffffffffffffffffffffffffffffffff021916908373ffffffffffffffffffffffffffffffffffffffff1602179055503480156200005357600080fd5b506001600060016101000a81548160ff02191690831515021790555060096000806101000a81548160ff021916908360ff160217905550620000a3620000a9640100000000026401000000009004565b6200044d565b6003604051908082528060200260200182016040528015620000e057816020015b6060815260200190600190039081620000ca5790505b5060039080519060200190620000f8929190620001d4565b5060008090505b60038160ff161015620001d157606060036040519080825280602002602001820160405280156200013f5781602001602082028038833980820191505090505b50905060008090505b60038160ff1610156200018d576000828260ff168151811015156200016957fe5b9060200190602002019060ff16908160ff1681525050808060010191505062000148565b508060038360ff16815481101515620001a257fe5b906000526020600020019080519060200190620001c19291906200023b565b50508080600101915050620000ff565b50565b82805482825590600052602060002090810192821562000228579160200282015b828111156200022757825182908051906020019062000216929190620002e9565b5091602001919060010190620001f5565b5b50905062000237919062000397565b5090565b82805482825590600052602060002090601f01602090048101928215620002d65791602002820160005b83821115620002a557835183826101000a81548160ff021916908360ff160217905550926020019260010160208160000104928301926001030262000265565b8015620002d45782816101000a81549060ff0219169055600101602081600001049283019260010302620002a5565b505b509050620002e59190620003c8565b5090565b82805482825590600052602060002090601f01602090048101928215620003845791602002820160005b838211156200035357835183826101000a81548160ff021916908360ff160217905550926020019260010160208160000104928301926001030262000313565b8015620003825782816101000a81549060ff021916905560010160208160000104928301926001030262000353565b505b509050620003939190620003c8565b5090565b620003c591905b80821115620003c15760008181620003b79190620003fb565b506001016200039e565b5090565b90565b620003f891905b80821115620003f457600081816101000a81549060ff021916905550600101620003cf565b5090565b90565b50805460008255601f01602090049060005260206000209081019062000422919062000425565b50565b6200044a91905b80821115620004465760008160009055506001016200042c565b5090565b90565b611269806200045d6000396000f3fe60806040526004361061008e576000357c0100000000000000000000000000000000000000000000000000000000900463ffffffff1680630fa33d131461009357806359a5f12d146100aa578063701bd985146101015780638086a92a1461014c57806395731112146101ab578063a094a03114610202578063d30895e414610231578063dfbf53ae14610288575b600080fd5b34801561009f57600080fd5b506100a86102df565b005b3480156100b657600080fd5b506100bf61064c565b604051808273ffffffffffffffffffffffffffffffffffffffff1673ffffffffffffffffffffffffffffffffffffffff16815260200191505060405180910390f35b34801561010d57600080fd5b5061014a6004803603604081101561012457600080fd5b81019080803560ff169060200190929190803560ff169060200190929190505050610672565b005b34801561015857600080fd5b5061018f6004803603604081101561016f57600080fd5b810190808035906020019092919080359060200190929190505050610cc9565b604051808260ff1660ff16815260200191505060405180910390f35b3480156101b757600080fd5b506101c0610d16565b604051808273ffffffffffffffffffffffffffffffffffffffff1673ffffffffffffffffffffffffffffffffffffffff16815260200191505060405180910390f35b34801561020e57600080fd5b50610217610d3c565b604051808215151515815260200191505060405180910390f35b34801561023d57600080fd5b50610246610d4f565b604051808273ffffffffffffffffffffffffffffffffffffffff1673ffffffffffffffffffffffffffffffffffffffff16815260200191505060405180910390f35b34801561029457600080fd5b5061029d610d75565b604051808273ffffffffffffffffffffffffffffffffffffffff1673ffffffffffffffffffffffffffffffffffffffff16815260200191505060405180910390f35b600073ffffffffffffffffffffffffffffffffffffffff16600160009054906101000a900473ffffffffffffffffffffffffffffffffffffffff1673ffffffffffffffffffffffffffffffffffffffff16148061038a5750600073ffffffffffffffffffffffffffffffffffffffff16600260009054906101000a900473ffffffffffffffffffffffffffffffffffffffff1673ffffffffffffffffffffffffffffffffffffffff16145b15156103fe576040517f08c379a000000000000000000000000000000000000000000000000000000000815260040180806020018281038252601b8152602001807f74776f20706c61796572732061726520696e207468652067616d65000000000081525060200191505060405180910390fd5b600073ffffffffffffffffffffffffffffffffffffffff16600160009054906101000a900473ffffffffffffffffffffffffffffffffffffffff1673ffffffffffffffffffffffffffffffffffffffff16141561049b5733600160006101000a81548173ffffffffffffffffffffffffffffffffffffffff021916908373ffffffffffffffffffffffffffffffffffffffff16021790555061064a565b600073ffffffffffffffffffffffffffffffffffffffff16600260009054906101000a900473ffffffffffffffffffffffffffffffffffffffff1673ffffffffffffffffffffffffffffffffffffffff1614156106495733600260006101000a81548173ffffffffffffffffffffffffffffffffffffffff021916908373ffffffffffffffffffffffffffffffffffffffff160217905550600260009054906101000a900473ffffffffffffffffffffffffffffffffffffffff16600060026101000a81548173ffffffffffffffffffffffffffffffffffffffff021916908373ffffffffffffffffffffffffffffffffffffffff16021790555060008060016101000a81548160ff02191690831515021790555060008090505b60038160ff1610156106475760008090505b60038160ff16101561063957600060038360ff168154811015156105e857fe5b906000526020600020018260ff1681548110151561060257fe5b90600052602060002090602091828204019190066101000a81548160ff021916908360ff16021790555080806001019150506105c8565b5080806001019150506105b6565b505b5b565b600260009054906101000a900473ffffffffffffffffffffffffffffffffffffffff1681565b600060029054906101000a900473ffffffffffffffffffffffffffffffffffffffff1673ffffffffffffffffffffffffffffffffffffffff163373ffffffffffffffffffffffffffffffffffffffff16141515610737576040517f08c379a000000000000000000000000000000000000000000000000000000000815260040180806020018281038252601e8152602001807f4f6e6c792061637469766520757365722063616e206d616b65206d6f7665000081525060200191505060405180910390fd5b60001515600060019054906101000a900460ff1615151415156107c2576040517f08c379a00000000000000000000000000000000000000000000000000000000081526004018080602001828103825260118152602001807f67616d65206973206e6f7420726561647900000000000000000000000000000081525060200191505060405180910390fd5b60008060009054906101000a900460ff1660ff1611151561084b576040517f08c379a00000000000000000000000000000000000000000000000000000000081526004018080602001828103825260168152602001807f7468657265206973206e6f206d6f766573206c6566740000000000000000000081525060200191505060405180910390fd5b60038160ff16108015610861575060038260ff16105b15156108d5576040517f08c379a000000000000000000000000000000000000000000000000000000000815260040180806020018281038252600c8152602001807f696c6c6567616c206d6f7665000000000000000000000000000000000000000081525060200191505060405180910390fd5b600060038360ff168154811015156108e957fe5b906000526020600020018260ff1681548110151561090357fe5b90600052602060002090602091828204019190069054906101000a900460ff1660ff161415156109c1576040517f08c379a000000000000000000000000000000000000000000000000000000000815260040180806020018281038252602a8152602001807f7468652063656c6c20697320616c7265616479207573656420627920616e6f7481526020017f68657220706c617965720000000000000000000000000000000000000000000081525060400191505060405180910390fd5b60016000809054906101000a900460ff16036000806101000a81548160ff021916908360ff160217905550600160009054906101000a900473ffffffffffffffffffffffffffffffffffffffff1673ffffffffffffffffffffffffffffffffffffffff163373ffffffffffffffffffffffffffffffffffffffff161415610b4f57600160038360ff16815481101515610a5657fe5b906000526020600020018260ff16815481101515610a7057fe5b90600052602060002090602091828204019190069054906101000a900460ff160160038360ff16815481101515610aa357fe5b906000526020600020018260ff16815481101515610abd57fe5b90600052602060002090602091828204019190066101000a81548160ff021916908360ff160217905550600260009054906101000a900473ffffffffffffffffffffffffffffffffffffffff16600060026101000a81548173ffffffffffffffffffffffffffffffffffffffff021916908373ffffffffffffffffffffffffffffffffffffffff160217905550610caf565b600260009054906101000a900473ffffffffffffffffffffffffffffffffffffffff1673ffffffffffffffffffffffffffffffffffffffff163373ffffffffffffffffffffffffffffffffffffffff161415610cae57600760038360ff16815481101515610bb957fe5b906000526020600020018260ff16815481101515610bd357fe5b90600052602060002090602091828204019190069054906101000a900460ff160160038360ff16815481101515610c0657fe5b906000526020600020018260ff16815481101515610c2057fe5b90600052602060002090602091828204019190066101000a81548160ff021916908360ff160217905550600160009054906101000a900473ffffffffffffffffffffffffffffffffffffffff16600060026101000a81548173ffffffffffffffffffffffffffffffffffffffff021916908373ffffffffffffffffffffffffffffffffffffffff1602179055505b5b610cb7610d9b565b15610cc557610cc4611181565b5b5050565b600382815481101515610cd857fe5b9060005260206000200181815481101515610cef57fe5b9060005260206000209060209182820401919006915091509054906101000a900460ff1681565b600060029054906101000a900473ffffffffffffffffffffffffffffffffffffffff1681565b600060019054906101000a900460ff1681565b600160009054906101000a900473ffffffffffffffffffffffffffffffffffffffff1681565b600460009054906101000a900473ffffffffffffffffffffffffffffffffffffffff1681565b60008060009050600080905060008090505b60038160ff161015611066576000809050600080905060008090505b60038160ff161015610f405760038460ff16815481101515610de757fe5b906000526020600020018160ff16815481101515610e0157fe5b90600052602060002090602091828204019190069054906101000a900460ff168301925060038160ff16815481101515610e3757fe5b906000526020600020018460ff16815481101515610e5157fe5b90600052602060002090602091828204019190069054906101000a900460ff16820191508060ff168460ff161415610ed45760038460ff16815481101515610e9557fe5b906000526020600020018460ff16815481101515610eaf57fe5b90600052602060002090602091828204019190069054906101000a900460ff16860195505b600281850160ff161415610f335760038160ff16815481101515610ef457fe5b906000526020600020018460ff16815481101515610f0e57fe5b90600052602060002090602091828204019190069054906101000a900460ff16850194505b8080600101915050610dc9565b5060038260ff161480610f56575060038160ff16145b15610fcc57600160009054906101000a900473ffffffffffffffffffffffffffffffffffffffff16600460006101000a81548173ffffffffffffffffffffffffffffffffffffffff021916908373ffffffffffffffffffffffffffffffffffffffff16021790555060019550505050505061117e565b60158260ff161480610fe1575060158160ff16145b1561105757600260009054906101000a900473ffffffffffffffffffffffffffffffffffffffff16600460006101000a81548173ffffffffffffffffffffffffffffffffffffffff021916908373ffffffffffffffffffffffffffffffffffffffff16021790555060019550505050505061117e565b50508080600101915050610dad565b5060038260ff16148061107c575060038160ff16145b156110ef57600160009054906101000a900473ffffffffffffffffffffffffffffffffffffffff16600460006101000a81548173ffffffffffffffffffffffffffffffffffffffff021916908373ffffffffffffffffffffffffffffffffffffffff16021790555060019250505061117e565b60158260ff161480611104575060158160ff16145b1561117757600260009054906101000a900473ffffffffffffffffffffffffffffffffffffffff16600460006101000a81548173ffffffffffffffffffffffffffffffffffffffff021916908373ffffffffffffffffffffffffffffffffffffffff16021790555060019250505061117e565b6000925050505b90565b6000600160006101000a81548173ffffffffffffffffffffffffffffffffffffffff021916908373ffffffffffffffffffffffffffffffffffffffff1602179055506000600260006101000a81548173ffffffffffffffffffffffffffffffffffffffff021916908373ffffffffffffffffffffffffffffffffffffffff1602179055506001600060016101000a81548160ff02191690831515021790555060096000806101000a81548160ff021916908360ff16021790555056fea165627a7a72305820b66606f1ab39b3fa75e97b05e8062e451e033222f6fa2aa7ae001d334f927d230029",
  "source": "pragma solidity 0.5.0;\ncontract TiCtAcToE\n{\n    uint8 leftMoves;\n    bool public  isReady;\n    address public activeUser;\n    address public player1; // 1 = o\n    address public player2; // 7 = x\n    uint8[][] public board;\n    address public winner = address(0);\n\n    constructor() public {\n        isReady = true;\n        leftMoves = 9;\n        initArray();\n    }\n\n    modifier onlyActiveUser() {\n        require(msg.sender == activeUser, \"Only active user can make move\");\n        _;\n    }\n\n    function initArray() internal  {\n        board = new uint8[][](3);\n        for (uint8 i = 0; i < 3; i++) {\n            uint8[] memory temp = new uint8[](3);\n            for(uint8 j = 0; j < 3; j++){\n                temp[j] = 0;\n            }\n            board[i] = temp;\n        }\n    }\n\n    function setUser() public{\n        require(\n            player1 == address(0) ||\n            player2 == address(0),\n            \"two players are in the game\"\n        );\n\n        if(player1 == address(0)){\n            player1 = msg.sender;\n        }else if(player2 == address(0)){\n            player2 = msg.sender;\n            activeUser = player2;\n            isReady = false;\n            for(uint8 i = 0; i < 3; i++ ){\n                for(uint8 j = 0; j < 3; j++ ){\n                    board[i][j] = 0;\n                }\n            }\n        }\n    }\n\n    function move(uint8 col, uint8 row) onlyActiveUser public {\n        require(isReady == false, \"game is not ready\");\n        require(leftMoves > 0, \"there is no moves left\");\n        require(row < 3 && col < 3, \"illegal move\");\n        require(board[col][row] == 0, \"the cell is already used by another player\");\n        leftMoves = leftMoves - 1;\n\n        if(msg.sender == player1 ){\n            board[col][row] = board[col][row] + 1;\n            activeUser = player2;\n\n        } else if(msg.sender == player2) {\n            board[col][row] = board[col][row] + 7;\n            activeUser = player1;\n        }\n\n        if(checkWinner()){\n            reset();\n        }\n    }\n   \n    // function drawBoard() public view returns(string memory) {\n    //     string memory res = new string(30);\n    //     for(uint8 i = 0; i < 3; i++ ){\n    //         for(uint8 j = 0; j < 3; j++ ) {\n    //             if (board[i][j] == 1) {\n    //                 // res = res + \" O \";\n    //             } else if (board[i][j] == 7) {\n    //                 // res = res + \" X \";\n    //             } else if (board[i][j] == 0) {\n    //                 // res = res + \" _ \";\n    //             }\n    //         }\n    //         // res = res + \"\\n\";\n    //     }\n    //     return res;\n    // }\n\n    function reset() internal{\n        player1 = address(0);\n        player2 = address(0);\n        isReady = true;\n        leftMoves = 9;\n    }\n\n    function checkWinner() internal returns(bool){\n\n        //[(0,0),(0,1),(0,2)]\n        //[(1,0),(1,1),(1,2)]\n        //[(2,0),(2,1),(2,2)]\n        \n        uint8 mainDiagSum = 0;\n        uint8 diagSum = 0;\n        for (uint8 i = 0; i < 3; i++) {\n            uint8 rowSum = 0;\n            uint8 colSum = 0;\n            for(uint8 j = 0; j < 3; j++){\n                rowSum += board[i][j];\n                colSum += board[j][i];\n                if (i == j) {\n                    mainDiagSum = mainDiagSum + board[i][i];\n                }\n                if (i + j == 2) {\n                    diagSum += board[j][i];\n                }\n            }\n            // check rows and columns\n            if (rowSum == 3 || colSum == 3) {\n                winner = player1;\n                return true;\n            } else if (rowSum == 21 || colSum == 21) {\n                winner = player2;\n                return true;\n            }\n        }\n        // check diagonals\n        if (mainDiagSum == 3 || diagSum == 3) {\n            winner = player1;\n            return true;\n        } else if (mainDiagSum == 21 || diagSum == 21) {\n            winner = player2;\n            return true;\n        }\n        return false;\n    }\n}",
  "sourcePath": "/home/victor/blockchain_academy/truffle_test/contracts/TiCtAcToE.sol",
  "compiler": {
    "name": "solc",
    "version": "0.5.0+commit.1d4f565a.Emscripten.clang"
  },
  "schemaVersion": "3.0.1",
  "updatedAt": "2019-01-16T17:36:48.414Z",
  "devdoc": {
    "methods": {}
  },
  "userdoc": {
    "methods": {}
  }
}